:020000040000FA
:10000000000200104D0100005501000057010000E2
:10001000590100005B0100005D01000000000000CC
:100020000000000000000000000000005F01000070
:100030006101000000000000630100006501000094
:100040006701000067010000670100006701000010
:100050006701000067010000670100006701000000
:1000600067010000670100006701000067010000F0
:1000700067010000670100006701000067010000E0
:1000800067010000670100006701000067010000D0
:1000900067010000670100006701000067010000C0
:1000A00067010000670100006701000067010000B0
:1000B00067010000670100006701000067010000A0
:1000C00067010000670100006701000000F002F80E
:1000D00000F02CF80AA090E8000C82448344AAF1B6
:1000E0000107DA4501D100F021F8AFF2090EBAE8B4
:1000F0000F0013F0010F18BFFB1A43F0010318475C
:10010000D4010000F4010000002300240025002693
:10011000103A28BF78C1FBD8520728BF30C148BF6A
:100120000B6070471FB51FBD10B510BD00F02FF854
:100130001146FFF7F7FF00F09DF800F04DF803B40B
:10014000FFF7F2FF03BC00F055F8000009488047B4
:1001500009480047FEE7FEE7FEE7FEE7FEE7FEE7A9
:10016000FEE7FEE7FEE7FEE704480549034A054BC4
:100170007047000001030000CD00000060C00720B0
:10018000000200100000001070477047704775466D
:1001900000F02CF8AE4605006946534620F00700F3
:1001A000854618B020B5FFF7DFFFBDE820404FF0CF
:1001B00000064FF000074FF000084FF0000B21F051
:1001C0000701AC46ACE8C009ACE8C009ACE8C0091E
:1001D000ACE8C0098D46704710B50446AFF3008007
:1001E0002046BDE81040FFF7AABF00000048704756
:1001F00000C0072001491820ABBEFEE72600020020
:100200007047002105E0002200E0521C8242FCD32E
:10021000491CB1F57A7FF6DB704700001148006891
:1002200040F480700F49C439C1F8C4000E4800681A
:1002300040F040400C4908600846406840F03C00EF
:1002400048600A48807840F0010008498870002022
:10025000074908600846006840F060000860102008
:10026000C8607047C4C00F4000C0024000C00920F1
:1002700000000240FFF7D2FF11E000240AE0012154
:10028000A140C8B200F00CF84FF4FA60FFF7B9FFD4
:10029000601CC4B2082CF2DD002000F001F8ECE78D
:1002A0000A49897E41F0010208498A760849886036
:1002B00000BF0749496801F080010029F9D00349CE
:1002C000897F41F0010201498A77704700C0092007
:1002D0000000024040040000000000100002000086
:1002E000080100004004000000C00720600000007A
:1002F000080100000000000000000000FFFFFFFFF9
:1003000020204B4908604B48D0F8A00100F02000A5
:1003100030B100BF4648006800F040000028F9D026
:10032000032043499C39086000204249C1F8A801D4
:100330003F490C31086001203D49943908603E482E
:100340003C4984310860AA203A498C310860552024
:1003500008600120374980310860AA2035498C3176
:10036000086055203349C1F88C0000BF31488830FF
:10037000006800F080600028F8D003202D4980310B
:100380000860AA202B49C1F88C00552029498C31DE
:10039000086000BF27488830006800F04070B0F166
:1003A000407FF7D123202349A4310860AA202149A6
:1003B000C1F8AC0055201F49AC31086001201D492F
:1003C000A0310860AA201B49AC31086055201949AA
:1003D000C1F8AC0000BF1748A830006800F4806086
:1003E0000028F8D003201349A0310860AA20114941
:1003F000C1F8AC0055200F49AC31086000BF0D4872
:10040000A830006800F44070B0F5407FF7D10B4889
:100410000849C431086000200649C1F8C8010846EF
:10042000006820F4704040F480400860704700008D
:10043000A0C10F4000C00F4063000500DE87280404
:04000005000000CD2A
:00000001FF
