:020000040000FA
:1000000000020010550100005D0100005F010000CA
:1000100061010000630100006501000000000000B4
:100020000000000000000000000000006701000068
:1000300069010000000000006B0100006D0100007C
:100040006F0100006F0100006F0100006F010000F0
:100050006F0100006F0100006F0100006F010000E0
:100060006F0100006F0100006F0100006F010000D0
:100070006F0100006F0100006F0100006F010000C0
:100080006F0100006F0100006F0100006F010000B0
:100090006F0100006F0100006F0100006F010000A0
:1000A0006F0100006F0100006F0100006F01000090
:1000B0006F0100006F0100006F0100006F01000080
:1000C0006F0100006F0100006F01000000F002F8F6
:1000D00000F031F80AA090E8000C82448344AAF1B1
:1000E0000107DA4501D100F026F8AFF2090EBAE8AF
:1000F0000F0013F0010F18BFFB1A43F0010318475C
:10010000E80700000808000000230024002500265E
:10011000103A28BF78C1FBD8520728BF30C148BF6A
:100120000B607047642900F07B80002070471FB58A
:100130001FBD10B510BD00F055F91146FFF7F7FFD0
:1001400000F090FA00F073F903B4FFF7F2FF03BC7C
:1001500000F07AF90948804709480047FEE7FEE7C2
:10016000FEE7FEE7FEE7FEE7FEE7FEE7FEE7FEE767
:1001700004480549034A054B704700005504000038
:10018000CD00000060C00720000200100000001039
:100190000FB41CB5074B06AA7B446946009005982E
:1001A00000F00DF90020694600F0A0F81CBC5DF8D5
:1001B00014FB0000510100002DE9F0410E460446F9
:1001C000002020622046E168884730B3252805D00A
:1001D000D4E901219047206A401CF2E7E1682046FB
:1001E00000278847050018D0A5F14100192802D83A
:1001F00020354FF400673246294620462760FFF736
:1002000091FF40B1012804D0F61D26F007060836FC
:10021000D8E7361DD6E72846DAE7206ABDE8F08140
:100220002DE9F0410646002410687529314616A5CF
:1002300010D0AFF30080002802DA404213A507E097
:1002400031688A0701D512A502E0490704D511A536
:10025000012401E0AFF3008000210A2206F1240707
:1002600009E0B0FBF2FCB0FBF2F302FB1C00303003
:1002700078541846491C0028F3D123462A463046B4
:10028000BDE8F04100F03CB8000000002D00000087
:100290002B000000200000004FF0000200B51346C4
:1002A00094469646203922BFA0E80C50A0E80C5096
:1002B000B1F12001BFF4F7AF090728BFA0E80C5047
:1002C00048BF0CC05DF804EB890028BF40F8042B40
:1002D00008BF704748BF20F8022B11F0804F18BFAD
:1002E00000F8012B70477047704770470A6802F8A2
:1002F000010B0A607047704700000000FFFFFFFF1E
:100300002DE9F0470D4699469246044600F124082F
:100310000168880604D5E06921F01001216000E041
:100320000120A84201DD471B00E00027A1697A19DE
:1003300002EB0900081AA0612078C00602D420460A
:10034000AFF30080002608E0D4E901211AF8060086
:100350009047206A401C761C20624E45F4DB2078D2
:10036000C0060AD52046AFF3008006E0D4E901219B
:1003700030209047206A401C2062381EA7F10107F8
:10038000F4DC07E0D4E9012118F805009047206A61
:10039000401C2062281EA5F10105F3DC2046AFF3C6
:1003A00000802078000602D50220BDE8F0870120F9
:1003B000FBE7000001694A1C02610878704700B53C
:1003C0008FB0CDE901310021059105497944CDE98E
:1003D000031011466846FFF7EFFE0FB000BD0000A6
:1003E000E5FFFFFF754600F02BF8AE4605006946B5
:1003F000534620F00700854618B020B5FFF7B8FE39
:10040000BDE820404FF000064FF000074FF0000815
:100410004FF0000B21F00701AC46ACE8C009ACE896
:10042000C009ACE8C009ACE8C0098D46704710B5FA
:100430000446AFF300802046BDE81040FFF784BEBD
:100440000048704700C0072001491820ABBEFEE7F6
:100450002600020020204B4908604B48D0F8A0013C
:1004600000F0200030B100BF4648006800F04000B6
:100470000028F9D0032043499C39086000204249F4
:10048000C1F8A8013F490C31086001203D49943969
:1004900008603E483C4984310860AA203A498C31C2
:1004A0000860552008600120374980310860AA2083
:1004B00035498C31086055203349C1F88C0000BFA4
:1004C00031488830006800F080600028F8D00320B0
:1004D0002D4980310860AA202B49C1F88C00552095
:1004E00029498C31086000BF27488830006800F037
:1004F0004070B0F1407FF7D123202349A431086038
:10050000AA202149C1F8AC0055201F49AC31086030
:1005100001201D49A0310860AA201B49AC310860A8
:1005200055201949C1F8AC0000BF1748A830006831
:1005300000F480600028F8D003201349A03108603F
:10054000AA201149C1F8AC0055200F49AC31086010
:1005500000BF0D48A830006800F44070B0F5407F3F
:10056000F7D10B480849C431086000200649C1F89A
:10057000C8010846006820F4704040F480400860DC
:1005800070470000A0C10F4000C00F40630005008D
:10059000DE872804002005E0002100E0491CFF2937
:1005A000FCDD401CFF28F7DD7047000000200949F2
:1005B000096841F08071074A116000BF0549096B65
:1005C00001F004010029F9D002498969C1F30B1037
:1005D00070470000004003400F48006840F480501E
:1005E0000D49C439C1F8C4000C48406840F480206B
:1005F0000A49486000200A4908600846006840F43B
:10060000807008600846006806490843044908608D
:100610000846006808607047C4C00F4000C0024030
:10062000004003400400210000B50D48006C40F07C
:10063000F0000B4908640846006A40F0E070086268
:10064000282000F07BF8062000F078F80F2000F05A
:1006500075F8012000F072F8022000F06FF800BD7C
:1006600000C009208CB00024FFF7B6FFFFF7DCFFC5
:1006700000F0F4F81BA000F055F8802000F05EF8C0
:100680001AA207CA09AB07C309A800F01FF9002086
:1006900000E0401C18498842FBDB202101A8FFF73D
:1006A000FBFD012000F04AF814A000F00FF917E05C
:1006B000FFF77CFF0446224612A101A8FFF768FD60
:1006C000842000F03BF801A800F000F9202101A8E7
:1006D000FFF7E2FD002000E0401C0B498842FBDBF5
:1006E000E6E700004144430D0A0000004C4344206B
:1006F000494E495400000000008793034144433AA7
:100700002000000025640000808D5B0000BF0449CC
:10071000097D01F020010029F9D0014908707047D6
:1007200000C0094000B5024603E012F8010BFFF7D4
:10073000EDFF10780028F8D100BD000010B5044688
:10074000234603F0F0032048C06B40F400001E492C
:10075000C8630846C06B40F08070C8630846806D6F
:10076000184388650846C06D60EA0300C8650846FE
:10077000806B40F480008863FFF70CFF1248C06B69
:1007800040F480001049C863FFF704FF04F00F0332
:100790001B010D48806D18430B4988650846C06DE4
:1007A00060EA0300C8650846806B40F480008863F7
:1007B000FFF7F0FE0448C06B40F480000249C863B4
:1007C000FFF7E8FE10BD000000C0092010B5044688
:1007D000234603F0F0032048C06B40F400001E499C
:1007E000C8630846806B40F0807088630846806D5F
:1007F000184388650846C06D60EA0300C86508466E
:10080000806B40F480008863FFF7C4FE1248C06B21
:1008100040F480001049C863FFF7BCFE234603F094
:100820000F031B010C48806D18430B49886508466F
:10083000C06D60EA0300C8650846806B40F4800024
:100840008863FFF7A7FE0448C06B40F480000249AC
:10085000C863FFF79FFE10BD00C00920184800685C
:1008600040F000701649C439C1F8C400154800684A
:1008700040F00A00134908600846006C40F0500040
:1008800008640F48C438D0F8AC0120F488000C4943
:10089000C439C1F8AC010C48007B40F083000A4920
:1008A0000873A22008700846007B20F080000873BF
:1008B000084690F8300040F0800081F83000704722
:1008C000C4C00F4000C0024000C0094030B504461B
:1008D000002504E0605DFFF779FF681CC5B2605D2C
:1008E0000028F7D130BD000008090000000000100A
:1008F00000020000080100000809000000C00720F5
:08090000600000000801000086
:04000005000000CD2A
:00000001FF
