:020000040000FA
:10000000000200106901000071010000730100008E
:100010007501000077010000790100000000000078
:100020000000000000000000000000007B01000054
:100030007D010000000000007F0100008101000040
:1000400083010000830100008301000083010000A0
:100050008301000083010000830100008301000090
:1000600021020000830100008301000083010000E1
:100070008301000083010000830100008301000070
:100080008301000083010000830100008301000060
:100090008301000083010000830100008301000050
:1000A0008301000083010000830100008301000040
:1000B0008301000083010000830100008301000030
:1000C00083010000830100008301000000F002F8BA
:1000D00000F03AF80AA090E8000C82448344AAF1A8
:1000E0000107DA4501D100F02FF8AFF2090EBAE8A6
:1000F0000F0013F0010F18BFFB1A43F0010318475C
:10010000A4010000D4010000103A24BF78C878C1CF
:10011000FAD8520724BF30C830C144BF04680C600D
:10012000704700000023002400250026103A28BF55
:1001300078C1FBD8520728BF30C148BF0B60704759
:100140001FB51FBD10B510BD00F02FF81146FFF709
:10015000F7FF00F073F800F04DF803B4FFF7F2FF7B
:1001600003BC00F055F800000948804709480047E3
:10017000FEE7FEE7FEE7FEE7FEE7FEE7FEE7FEE757
:10018000FEE7FEE704480549034A054B70470000B7
:1001900001030000CD00000068C00720000200102D
:1001A00000000010704770477047754600F02CF84B
:1001B000AE4605006946534620F00700854618B054
:1001C00020B5FFF7DFFFBDE820404FF000064FF0FD
:1001D00000074FF000084FF0000B21F00701AC467C
:1001E000ACE8C009ACE8C009ACE8C009ACE8C0099B
:1001F0008D46704710B50446AFF300802046BDE839
:100200001040FFF7AABF00000048704704C0072055
:1002100001491820ABBEFEE726000200704700002F
:100220000448806800F0040018B1024800780249D0
:100230000870704700C0094000C0072000F000F9B6
:1002400007A000F023F809E00948007830B1084819
:10025000007800F00FF8002005490870F4E700006E
:1002600048656C6C6F2055415254330D0A000000F4
:1002700000C0072000BF0449097D01F020010029CA
:10028000F9D001490870704700C0094000B5024626
:1002900003E012F8010BFFF7EDFF10780028F8D10A
:1002A00000BD0000D804000000C0072004000000CA
:1002B00008010000D8040000000000100002000047
:1002C00024010000DC04000004C0072064000000DA
:1002D00024010000000000000000000000000000F9
:1002E000000000000000000000000000000000000E
:1002F000000000000000000000000000FFFFFFFF02
:1003000020204B4908604B48D0F8A00100F02000A5
:1003100030B100BF4648006800F040000028F9D026
:10032000032043499C39086000204249C1F8A801D4
:100330003F490C31086001203D49943908603E482E
:100340003C4984310860AA203A498C310860552024
:1003500008600120374980310860AA2035498C3176
:10036000086055203349C1F88C0000BF31488830FF
:10037000006800F080600028F8D003202D4980310B
:100380000860AA202B49C1F88C00552029498C31DE
:10039000086000BF27488830006800F04070B0F166
:1003A000407FF7D123202349A4310860AA202149A6
:1003B000C1F8AC0055201F49AC31086001201D492F
:1003C000A0310860AA201B49AC31086055201949AA
:1003D000C1F8AC0000BF1748A830006800F4806086
:1003E0000028F8D003201349A0310860AA20114941
:1003F000C1F8AC0055200F49AC31086000BF0D4872
:10040000A830006800F44070B0F5407FF7D10B4889
:100410000849C431086000200649C1F8C8010846EF
:10042000006820F4704040F480400860704700008D
:10043000A0C10F4000C00F4063000500DE87280404
:100440002248006840F000702049C439C1F8C40057
:100450001F48006840F00A001D4908600846006C0B
:1004600040F0500008641948C438D0F8AC0120F4BA
:1004700088001649C439C1F8AC011648007B40F029
:10048000830014490873A22008700846007B20F0FE
:1004900080000873084690F8300040F0800081F832
:1004A00030000846406840F00100486008200028FD
:1004B00009DB00F01F02012191404209920002F184
:1004C000E022C2F8001100BF70470000C4C00F4016
:0C04D00000C0024000C009400000000015
:04000005000000CD2A
:00000001FF
