:020000040000FA
:10200000000200104D210000552100005721000062
:10201000592100005B2100005D210000000000004C
:102020000000000000000000000000005F21000030
:102030006121000000000000632100006521000014
:102040006721000067210000672100006721000070
:102050006721000067210000672100006721000060
:102060006721000067210000672100006721000050
:102070006721000067210000672100006721000040
:102080006721000067210000672100006721000030
:102090006721000067210000672100006721000020
:1020A0006721000067210000672100006721000010
:1020B0006721000067210000672100006721000000
:1020C00067210000672100006721000000F002F88E
:1020D00000F02CF80AA090E8000C82448344AAF196
:1020E0000107DA4501D100F021F8AFF2090EBAE894
:1020F0000F0013F0010F18BFFB1A43F0010318473C
:10210000D0020000F0020000002300240025002679
:10211000103A28BF78C1FBD8520728BF30C148BF4A
:102120000B6070471FB51FBD10B510BD00F02FF834
:102130001146FFF7F7FF00F005F900F04DF803B482
:10214000FFF7F2FF03BC00F055F800000948804794
:1021500009480047FEE7FEE7FEE7FEE7FEE7FEE789
:10216000FEE7FEE7FEE7FEE704480549034A054BA4
:102170007047000005220000CD20000060C007204D
:10218000000200100000001070477047704775464D
:1021900000F02CF8AE4605006946534620F00700D3
:1021A000854618B020B5FFF7DFFFBDE820404FF0AF
:1021B00000064FF000074FF000084FF0000B21F031
:1021C0000701AC46ACE8C009ACE8C009ACE8C009FE
:1021D000ACE8C0098D46704710B50446AFF30080E7
:1021E0002046BDE81040FFF7AABF00000048704736
:1021F00000C0072001491820ABBEFEE72600020000
:102200007047000020204B4908604B48D0F8A001DF
:1022100000F0200030B100BF4648006800F04000E8
:102220000028F9D0032043499C3908600020424926
:10223000C1F8A8013F490C31086001203D4994399B
:1022400008603E483C4984310860AA203A498C31F4
:102250000860552008600120374980310860AA20B5
:1022600035498C31086055203349C1F88C0000BFD6
:1022700031488830006800F080600028F8D00320E2
:102280002D4980310860AA202B49C1F88C005520C7
:1022900029498C31086000BF27488830006800F069
:1022A0004070B0F1407FF7D123202349A43108606A
:1022B000AA202149C1F8AC0055201F49AC31086063
:1022C00001201D49A0310860AA201B49AC310860DB
:1022D00055201949C1F8AC0000BF1748A830006864
:1022E00000F480600028F8D003201349A031086072
:1022F000AA201149C1F8AC0055200F49AC31086043
:1023000000BF0D48A830006800F44070B0F5407F71
:10231000F7D10B480849C431086000200649C1F8CC
:10232000C8010846006820F4704040F4804008600E
:1023300070470000A0C10F4000C00F4063000500BF
:10234000DE8728042048006920F440001E49086107
:102350001E48006C40F400601C4908640846006C8C
:1023600040F4007008642DE01848806D40F400606F
:10237000164988650846806D40F400708865002025
:1023800005E0002100E0491C6429FCDD401C41F20D
:1023900088318842F5DD0D48C06D40F400600B497E
:1023A000C8650846C06D40F40070C865002005E0AF
:1023B000002100E0491C6429FCDD401C41F2883109
:1023C0008842F5DDD0E7000000C0024000C00920CF
:1023D000F0230000000000100002000008210000AF
:1023E000F023000000C0072060000000082100006A
:04000005000020CD0A
:00000001FF
