:020000040000FA
:10000000000200106901000071010000730100008E
:100010007501000077010000790100000000000078
:100020000000000000000000000000007B01000054
:100030007D010000000000007F0100008101000040
:1000400083010000830100008301000083010000A0
:100050008301000083010000830100008301000090
:100060006D02000083010000830100008301000095
:100070008301000083010000830100008301000070
:100080008301000083010000830100008301000060
:100090008301000083010000830100008301000050
:1000A0008301000083010000830100008301000040
:1000B0008301000083010000830100008301000030
:1000C00083010000830100008301000000F002F8BA
:1000D00000F03AF80AA090E8000C82448344AAF1A8
:1000E0000107DA4501D100F02FF8AFF2090EBAE8A6
:1000F0000F0013F0010F18BFFB1A43F0010318475C
:100100005404000084040000103A24BF78C878C169
:10011000FAD8520724BF30C830C144BF04680C600D
:10012000704700000023002400250026103A28BF55
:1001300078C1FBD8520728BF30C148BF0B60704759
:100140001FB51FBD10B510BD00F056F81146FFF7E2
:10015000F7FF00F0ADF800F074F803B4FFF7F2FF1A
:1001600003BC00F07BF800000948804709480047BD
:10017000FEE7FEE7FEE7FEE7FEE7FEE7FEE7FEE757
:10018000FEE7FEE704480549034A054B70470000B7
:1001900001030000CD000000A8C0072000020010ED
:1001A000000000104FF0000200B51346944696463A
:1001B000203922BFA0E80C50A0E80C50B1F120017A
:1001C000BFF4F7AF090728BFA0E80C5048BF0CC028
:1001D0005DF804EB890028BF40F8042B08BF704786
:1001E00048BF20F8022B11F0804F18BF00F8012BF8
:1001F0007047704770477047754600F02BF8AE4661
:1002000005006946534620F00700854618B020B522
:10021000FFF7B8FFBDE820404FF000064FF00007A1
:100220004FF000084FF0000B21F00701AC46ACE89E
:10023000C009ACE8C009ACE8C009ACE8C0098D460B
:10024000704710B50446AFF300802046BDE810406B
:10025000FFF783BF0048704748C0072001491820B6
:10026000ABBEFEE726000200704700000D48806824
:1002700000F00400A8B10B4800780B490B4A126843
:100280008854084609490968405C50B1074800682D
:10029000401C0649086008460068402801DB002031
:1002A0000860704700C0094008C0072000C0072050
:1002B00088B000F003F900BF0AA000F0F3F8202195
:1002C0006846FFF76FFF002405E000F0B9F80DF86D
:1002D000040000B1641C0A2CF7DB684600F0E2F869
:1002E00000BFFEE748656C6C6F2055415254330DDA
:1002F0000A0000000000000000000000FFFFFFFFF8
:1003000020204B4908604B48D0F8A00100F02000A5
:1003100030B100BF4648006800F040000028F9D026
:10032000032043499C39086000204249C1F8A801D4
:100330003F490C31086001203D49943908603E482E
:100340003C4984310860AA203A498C310860552024
:1003500008600120374980310860AA2035498C3176
:10036000086055203349C1F88C0000BF31488830FF
:10037000006800F080600028F8D003202D4980310B
:100380000860AA202B49C1F88C00552029498C31DE
:10039000086000BF27488830006800F04070B0F166
:1003A000407FF7D123202349A4310860AA202149A6
:1003B000C1F8AC0055201F49AC31086001201D492F
:1003C000A0310860AA201B49AC31086055201949AA
:1003D000C1F8AC0000BF1748A830006800F4806086
:1003E0000028F8D003201349A0310860AA20114941
:1003F000C1F8AC0055200F49AC31086000BF0D4872
:10040000A830006800F44070B0F5407FF7D10B4889
:100410000849C431086000200649C1F8C8010846EF
:10042000006820F4704040F480400860704700008D
:10043000A0C10F4000C00F4063000500DE87280404
:1004400010B500200E4909680E4A126891420CDA74
:100450000D490B4A1268885C002209490B6809683B
:10046000491C074C21600849CA54054909683F29BD
:1004700004DB0021024A1160024A116010BD000035
:1004800004C0072000C0072008C0072000BF04499F
:10049000097D01F020010029F9D001490870704759
:1004A00000C0094000B5024603E012F8010BFFF757
:1004B000EDFF10780028F8D100BD00002248006848
:1004C00040F000702049C439C1F8C4001F480068DA
:1004D00040F00A001D4908600846006C40F05000DA
:1004E00008641948C438D0F8AC0120F488001649D3
:1004F000C439C1F8AC011648007B40F083001449B0
:100500000873A22008700846007B20F08000087362
:10051000084690F8300040F0800081F8300008462E
:10052000406840F0010048600820002809DB00F026
:100530001F02012191404209920002F1E022C2F81B
:10054000001100BF70470000C4C00F4000C002404F
:1005500000C009408405000000C00720080000001A
:1005600008010000840500000000001000020000E7
:10057000240100008C05000008C00720A000000036
:0C0580002401000000000000000000004A
:04000005000000CD2A
:00000001FF
